:100000000C9461000C941F020C944C020C947E0022
:100010000C947E000C947E000C947E000C947E0068
:100020000C947E000C947E000C947E000C947E0058
:100030000C947E000C947E000C947E000C947E0048
:100040000C9479020C947E000C947E000C947E003B
:100050000C947E000C947E000C947E000C947E0028
:100060000C947E000C947E00000000002400270009
:100070002A0000000000250028002B0000000000DE
:1000800023002600290004040404040404040202DA
:100090000202020203030303030301020408102007
:1000A0004080010204081020010204081020000012
:1000B0000007000201000003040600000000000029
:1000C000000011241FBECFEFD4E0DEBFCDBF12E091
:1000D000A0E0B1E0ECE5F8E002C005900D92A63A90
:1000E000B107D9F712E0A6EAB2E001C01D92AE3B1B
:1000F000B107E1F70E94DA030C942C040C94000081
:1001000081E08093A6028091A9029091AA020197B2
:100110009093B0028093AF020E94CD022091AB0277
:100120003091AC024091AD025091AE02621B730B54
:10013000840B950B633071058105910528F421E04E
:1001400030E040E050E012C00E94CD022091AB02AE
:100150003091AC024091AD025091AE0220953095A5
:1001600040955095260F371F481F591F2093A20214
:100170003093A3024093A4025093A5020E94CD02A3
:100180006093AB027093AC028093AD029093AE0289
:100190000895CF93DF93C0E9D2E0899161E00E9496
:1001A000850382E0CC39D807C1F7DF91CF9108955C
:1001B0000F931F93CF93DF93882329F08091A6029A
:1001C000882309F46BC01092A6022091A2023091FC
:1001D000A3024091A4025091A5026091A0027091E7
:1001E000A102882777FD8095982F0E94EB03AC0130
:1001F000CB01DA01893C29E1920720E0A20720E047
:10020000B20720F088EC99E1A0E0B0E080939C0276
:1002100090939D02A0939E02B0939F028091A902A9
:100220009091AA022EC08091AF029091B002880FE7
:10023000991FE091A702F091A802E80FF91F008131
:100240001181C0E0D0E000951095FE01E057FD4F10
:10025000B8010C2E02C0759567950A94E2F761709B
:1002600080810E9485032196CC30D10571F7809161
:100270009C0290919D020E9401038091AF02909197
:10028000B00201979093B0028093AF028091AF02C9
:100290009091B00297FFC7CF0E94C900DF91CF9124
:1002A0001F910F91089581E00E94D80008952F9228
:1002B0003F924F925F926F927F928F929F92AF92F6
:1002C000BF92CF92DF92EF92FF920F931F93CF9343
:1002D000DF930E94CD021B012C010E94DB023B0137
:1002E0004C0134C00E94DB027B018C01E618F70848
:1002F00008091909C801B70120E137E240E050E0E0
:100300000E940A045B016C01C801B70128EC30E0CF
:1003100040E050E00E940A04A216B306C406D506C7
:1003200058F0C0E9D2E0899160E00E94850322E0A4
:10033000CC39D207C1F70AC0C0E9D2E0899161E0A7
:100340000E94850382E0CC39D807C1F70E94CD0214
:100350006219730984099509605D77408040904077
:1003600008F4C0CFDF91CF911F910F91FF90EF90D4
:10037000DF90CF90BF90AF909F908F907F906F90C5
:100380005F904F903F902F900895CF93DF93C0E9F7
:10039000D2E0899161E00E94460382E0CC39D8071F
:1003A000C1F781E060E870E042E050E00E94FC01AB
:1003B00083E060E00E94460383E061E00E948503E1
:1003C000DF91CF9108950E94C50186E090E090935F
:1003D000A1028093A00280E091E09093A802809314
:1003E000A70288EC90E09093AA028093A9020E9451
:1003F00057010E94C9000895823000F5E82FF0E00F
:10040000EE0FFF1FEF54FD4F71836083882319F0B7
:100410008130A1F408C0809169008C7F842B809387
:100420006900E89A089580916900440F551F440FB0
:10043000551F837F842B80936900E99A08951F924A
:100440000F920FB60F9211242F933F934F935F9308
:100450006F937F938F939F93AF93BF93EF93FF938C
:100460008091B1029091B202892B29F0E091B10202
:10047000F091B2020995FF91EF91BF91AF919F91D9
:100480008F917F916F915F914F913F912F910F903D
:100490000FBE0F901F9018951F920F920FB60F92DC
:1004A00011242F933F934F935F936F937F938F9379
:1004B0009F93AF93BF93EF93FF938091B30290917B
:1004C000B402892B29F0E091B302F091B4020995AE
:1004D000FF91EF91BF91AF919F918F917F916F911C
:1004E0005F914F913F912F910F900FBE0F901F90F2
:1004F00018951F920F920FB60F9211242F933F93CE
:100500004F935F936F937F938F939F93AF93BF931B
:100510002091B9023091BA024091BB025091BC02C5
:100520007091BD02DA01C9010296A11DB11D672FAC
:100530006A5F6D3730F06D57DA01C9010396A11D6E
:10054000B11D6093BD028093B9029093BA02A0934B
:10055000BB02B093BC028091B5029091B602A0910B
:10056000B702B091B8020196A11DB11D8093B502EA
:100570009093B602A093B702B093B802BF91AF9127
:100580009F918F917F916F915F914F913F912F91AB
:100590000F900FBE0F901F9018958FB7F894209171
:1005A000B9023091BA024091BB025091BC028FBF98
:1005B000B901CA0108959FB7F8942091B50230910E
:1005C000B6024091B7025091B80286B5A89B06C00A
:1005D0008F3F21F02F5F3F4F4F4F5F4F9FBF542FF3
:1005E000432F322F2227280F311D411D511D83E03B
:1005F000220F331F441F551F8A95D1F7B901CA0135
:100600000895019739F0019729F0880F991F0197F4
:100610000197F1F70895789484B5826084BD84B51C
:10062000816084BD85B5826085BD85B5816085BDED
:10063000EEE6F0E0808181608083E1E8F0E0108206
:10064000808182608083808181608083E0E8F0E047
:10065000808181608083E1EBF0E080818460808331
:10066000E0EBF0E0808181608083EAE7F0E0808168
:1006700084608083808182608083808181608083C8
:100680008081806880831092C1000895CF93DF93AA
:10069000482F50E0CA0186569F4FFC0134914A57BB
:1006A0005F4FFA018491882369F190E0880F991FC8
:1006B000FC01E859FF4FA591B491FC01EE58FF4FA2
:1006C000C591D491662351F42FB7F8948C91932F50
:1006D000909589238C93888189230BC0623061F4C3
:1006E0002FB7F8948C91932F909589238C938881C0
:1006F000832B88832FBF06C09FB7F8948C91832BE0
:100700008C939FBFDF91CF910895482F50E0CA018D
:1007100082559F4FFC012491CA0186569F4FFC01D0
:1007200094914A575F4FFA013491332309F440C042
:10073000222351F1233071F0243028F42130A1F02C
:10074000223011F514C02630B1F02730C1F024302A
:10075000D9F404C0809180008F7703C0809180001D
:100760008F7D8093800010C084B58F7702C084B5E0
:100770008F7D84BD09C08091B0008F7703C08091C8
:10078000B0008F7D8093B000E32FF0E0EE0FFF1FED
:10079000EE58FF4FA591B4912FB7F894662321F43A
:1007A0008C919095892302C08C91892B8C932FBFBB
:1007B00008950895CF93DF930E940B030E94D903FD
:1007C0000E94E301C0E0D0E00E9453012097E1F3D2
:1007D0000E940000F9CF629FD001739FF001829FB9
:1007E000E00DF11D649FE00DF11D929FF00D839FC0
:1007F000F00D749FF00D659FF00D9927729FB00D5D
:10080000E11DF91F639FB00DE11DF91FBD01CF016F
:1008100011240895A1E21A2EAA1BBB1BFD010DC0D5
:10082000AA1FBB1FEE1FFF1FA217B307E407F507A0
:1008300020F0A21BB30BE40BF50B661F771F881F7C
:10084000991F1A9469F760957095809590959B0112
:0C085000AC01BD01CF010895F894FFCF6A
:10085C00000000000000000000000000000000008C
:10086C00000000000000000000000000000000007C
:10087C00000000000000000000000000000000006C
:10088C00000000000000000000000000000000005C
:10089C00000000000000000000000000000000004C
:1008AC00000000000000000000000000000000003C
:1008BC00000000000000000000000000000000002C
:1008CC00000000000000000000000000000000001C
:1008DC00000000000000000000000000000000000C
:1008EC0000000000000000000000000000000000FC
:1008FC0000000000000000000000000000000000EC
:10090C00F90FF90F990C990CF1077107010001000F
:10091C0019007900E1016107E10FF90119000100EB
:10092C000100F10FF90F190419063903F103E10164
:10093C000000000000000000000C010C010CF90F7D
:10094C00F90F010C010C010C0100F90FF90F610CEE
:10095C00710ED90799030100190C190CF90FF90F35
:10096C00190C190C0100F90FF90FC10CC10F8007FC
:10097C0000000000000001003900F901C10FC10F97
:10098C00F9017900E103810FF90F790001000100F1
:10099C0019007900E1016107E10FF901190001006B
:1009AC000100F90FF90F610C710ED90799030100C1
:1009BC00E101F1073906190C190C190C310CF1076E
:1009CC00C1030100F100F9031907190E190C310CC0
:1009DC00310E0000000000000000000000000000CC
:1009EC000708090A0E0F101112130204E40C000080
:0609FC0006004C0400009F
:00000001FF
